{
  "contractName": "Groth16Verifier",
  "abi": [
    {
      "inputs": [
        {
          "internalType": "uint256[2]",
          "name": "_pA",
          "type": "uint256[2]"
        },
        {
          "internalType": "uint256[2][2]",
          "name": "_pB",
          "type": "uint256[2][2]"
        },
        {
          "internalType": "uint256[2]",
          "name": "_pC",
          "type": "uint256[2]"
        },
        {
          "internalType": "uint256[13]",
          "name": "_pubSignals",
          "type": "uint256[13]"
        }
      ],
      "name": "verifyProof",
      "outputs": [
        {
          "internalType": "bool",
          "name": "",
          "type": "bool"
        }
      ],
      "stateMutability": "view",
      "type": "function",
      "constant": true
    }
  ],
  "bytecode": "0x608060405234801561001057600080fd5b50610a75806100206000396000f3fe608060405234801561001057600080fd5b506004361061002b5760003560e01c8063f143a75e14610030575b600080fd5b61004a600480360381019061004591906109a0565b610060565b6040516100579190610a24565b60405180910390f35b6000610852565b7f30644e72e131a029b85045b68181585d2833e84879b9709143e1f593f00000018110610098576000805260206000f35b50565b600060405183815284602082015285604082015260408160608360076107d05a03fa9150816100ce576000805260206000f35b825160408201526020830151606082015260408360808360066107d05a03fa9150816100fe576000805260206000f35b505050505050565b600060808601600087017f123bf3a65b37406e2d4d1e3a7dbef0f427dc76ec404013293576dc4f0f2ad8e181527f0d6be5c48f847f935497b97e89a363e3210425397ddb058fc3ccd058d75f59cc60208201526101a960008801357f1f23cef490bf0664da6b79c1c88ef092e17fa864992c375d3005ecb18b1ae3597f2802462707b74c6fb4f1836fee22a63bef378146ba5c2e6a4a6dc1972112dc278461009b565b6101f960208801357f0cbed2fb72c08e5d52d2abddcc9bfcf166fcd4c803824c13412459386f6adc917f2416ca1276e28b2e9951c2cf58d792b41b96837b020b246a09129274dfe25ddc8461009b565b61024960408801357f0e0d7b83b7cfd1f1f13088a5f5ee419dbee84b2406509e52fb310bf45c2384f87f2899224886b8626d13de19b5ce8b41b8b52ef762e0b97de362322b5da0820d5e8461009b565b61029960608801357f2cb23c1298968b80d25f3c05867b726e30be7deed5e07174095572bcbb48fcff7f137c1533ac1067b01fa0c6ad59693e19d3602d36ee9779f4dc62d4271bef07dc8461009b565b6102e960808801357f0d2069f8b47499d732510d5d4e01141007eee900062c91dfe1785bd356e792587f16ab94e4e8de600b44bafc6ad36a67402b340147648ae5f2791961f80f43d9168461009b565b61033960a08801357f15543763e982192159a827c8d49bd7fd662a61d58c52fe155d2a31cdb038c57a7f0e580390824d96409995a9fc26c501dec2fd2721323bbaa443ddfabef18be5338461009b565b61038960c08801357f06102919e6178fc2f738cb9c1b14cc0f6354363d79bc2272e0a494f86a68a0637f02c942e377f662e336c52a90b4045223288d93236f0b0303cff73f40b43210758461009b565b6103d960e08801357f100d169ac4cf5261f83e6c8d71de0816cb96398857f457b762ea11b1bbc9c43e7f0efdd39615c28a4aa8a2cced9234738a0452a4409852a05da5bcffe43d9fdb958461009b565b61042a6101008801357f098171187c027810111bd6717aea97d257a4e09967359012fcb9ed8809db69c87f23c609a72c1eeedeae3e61b25afbde7b899c5fbab9d8ee55f978e858852d36cb8461009b565b61047b6101208801357f18722682bfb10368ad3ee9cb493ca616e030f26af815af4ce06bb2f4fe93a6967f2fa466d634bde55a149936fbeb56fb16e2f3bfbe42dd27544d42a74782a6e0d68461009b565b6104cc6101408801357f1b244707d8a57bcdf7bd17414f0d2d298c969c1bb5144758e4f6c2b24ea3efc67f08a2682200ca7d09477c87a2eaad1508ce239a2bdc973063e81e631cf6c16ec48461009b565b61051d6101608801357f25c43cba60e4b33bc6c7530dad3308356275452535213dea6fd20c0f72f3deda7f213ddfcc4d4b3aa1ab424e3b309671108ef7ed6f93fb54809a9c33016ce616e08461009b565b61056e6101808801357f22c58b2dab58bbe4cb16a9a0483a0f9446203058d009fac3fee37021efb6b6be7f1da26d9d984a638744d32c7605b8445652773386f2480920c7f095e00d2ed9468461009b565b833582527f30644e72e131a029b85045b68181585d97816a916871ca8d3c208c16d87cfd4760208501357f30644e72e131a029b85045b68181585d97816a916871ca8d3c208c16d87cfd4703066020830152843560408301526020850135606083015260408501356080830152606085013560a08301527f2d4d9aa7e302d9df41749d5507949d05dbea33fbb16c643b22f599a2be6df2e260c08301527f14bedd503c37ceb061d8ec60209fe345ce89830a19230301f076caff004d192660e08301527f0967032fcbf776d1afc985f88877f182d38480a653f2decaa9794cbc3bf3060c6101008301527f0e187847ad4c798374d0d6732bf501847dd68bc0e071241e0213bc7fc13db7ab6101208301527f304cfbd1e08a704a99f5e847d93f8c3caafddec46b7a0d379da69a4d112346a76101408301527f1739c1b1a457a8c7313123d24d2f9192f896b7c63eea05a9d57f06547ad0cec8610160830152600088015161018083015260206000018801516101a08301527f198e9393920d483a7260bfb731fb5d25f1aa493335a9e71297e485b7aef312c26101c08301527f1800deef121f1e76426a00665e5c4479674322d4f75edadd46debd5cd992f6ed6101e08301527f090689d0585ff075ec9e99ad690c3395bc4b313370b38ef355acdadcd122975b6102008301527f12c85ea5db8c6deb4aab71808dcb408fe3d1e7690c43d37b4ce6cc0166fa7daa610220830152853561024083015260208601356102608301527f221c0e1e89f3ff75930fb529fb579b62dcca7123c471f3bdfa15f0a8e79a2e3b6102808301527f04da7cd301ae43d6dc70d88018e20dd23c46ee5497615132774df5f3e22a979e6102a08301527f08e9c87020f89b7c551988c9a61e186047377e1187c1ce6032919438308767d76102c08301527f1f6c0a63a4602d21fd85ed4c0ea978c0f0a88222e83d140c88967ea8def575b06102e08301526020826103008460086107d05a03fa82518116935050505095945050505050565b604051610380810160405261086a6000840135610067565b6108776020840135610067565b6108846040840135610067565b6108916060840135610067565b61089e6080840135610067565b6108ab60a0840135610067565b6108b860c0840135610067565b6108c560e0840135610067565b6108d3610100840135610067565b6108e1610120840135610067565b6108ef610140840135610067565b6108fd610160840135610067565b61090b610180840135610067565b6109196101a0840135610067565b610926818486888a610106565b8060005260206000f35b600080fd5b600080fd5b60008190508260206002028201111561095657610955610935565b5b92915050565b60008190508260406002028201111561097857610977610935565b5b92915050565b6000819050826020600d028201111561099a57610999610935565b5b92915050565b6000806000806102a085870312156109bb576109ba610930565b5b60006109c98782880161093a565b94505060406109da8782880161095c565b93505060c06109eb8782880161093a565b9250506101006109fd8782880161097e565b91505092959194509250565b60008115159050919050565b610a1e81610a09565b82525050565b6000602082019050610a396000830184610a15565b9291505056fea264697066735822122014cd6b2c514a129f8b5fb8d6fd847ca0e1c5edcb8dcb3acd8c5015c4c12b4fa264736f6c63430008130033",
  "immutableReferences": {},
  "source": "// SPDX-License-Identifier: GPL-3.0\n/*\n    Copyright 2021 0KIMS association.\n\n    This file is generated with [snarkJS](https://github.com/iden3/snarkjs).\n\n    snarkJS is a free software: you can redistribute it and/or modify it\n    under the terms of the GNU General Public License as published by\n    the Free Software Foundation, either version 3 of the License, or\n    (at your option) any later version.\n\n    snarkJS is distributed in the hope that it will be useful, but WITHOUT\n    ANY WARRANTY; without even the implied warranty of MERCHANTABILITY\n    or FITNESS FOR A PARTICULAR PURPOSE. See the GNU General Public\n    License for more details.\n\n    You should have received a copy of the GNU General Public License\n    along with snarkJS. If not, see <https://www.gnu.org/licenses/>.\n*/\n\npragma solidity >=0.7.0 <0.9.0;\n\ncontract Groth16Verifier {\n    // Scalar field size\n    uint256 constant r    = 21888242871839275222246405745257275088548364400416034343698204186575808495617;\n    // Base field size\n    uint256 constant q   = 21888242871839275222246405745257275088696311157297823662689037894645226208583;\n\n    // Verification Key data\n    uint256 constant alphax  = 20491192805390485299153009773594534940189261866228447918068658471970481763042;\n    uint256 constant alphay  = 9383485363053290200918347156157836566562967994039712273449902621266178545958;\n    uint256 constant betax1  = 4252822878758300859123897981450591353533073413197771768651442665752259397132;\n    uint256 constant betax2  = 6375614351688725206403948262868962793625744043794305715222011528459656738731;\n    uint256 constant betay1  = 21847035105528745403288232691147584728191162732299865338377159692350059136679;\n    uint256 constant betay2  = 10505242626370262277552901082094356697409835680220590971873171140371331206856;\n    uint256 constant gammax1 = 11559732032986387107991004021392285783925812861821192530917403151452391805634;\n    uint256 constant gammax2 = 10857046999023057135944570762232829481370756359578518086990519993285655852781;\n    uint256 constant gammay1 = 4082367875863433681332203403145435568316851327593401208105741076214120093531;\n    uint256 constant gammay2 = 8495653923123431417604973247489272438418190587263600148770280649306958101930;\n    uint256 constant deltax1 = 15428206017420265916011292638699762954077670948941964037558870466127833214523;\n    uint256 constant deltax2 = 2195285559727502889503053230062408850706954374412035982084568070229160794014;\n    uint256 constant deltay1 = 4031561527015143961200505271672260809555197161355037539536883066663908894679;\n    uint256 constant deltay2 = 14212589492886291969311065203356028915211444214276301493314347355883374474672;\n\n\n    uint256 constant IC0x = 8247556860640284285300479270900337241442271071687946262571275854108204652769;\n    uint256 constant IC0y = 6070705466690876337686409054923003856844533664545217945487459998192453507532;\n\n    uint256 constant IC1x = 18096531811954998365595926770312597379150166335038585218986156058288405535783;\n    uint256 constant IC1y = 14084966306566480249583185967663219943480906495696650115437029975274716586841;\n\n    uint256 constant IC2x = 16323527834983851220559688665495914714171324797417903366703120991556005420508;\n    uint256 constant IC2y = 5764911271071343396277162005187358276310908782440351081602565509888661445777;\n\n    uint256 constant IC3x = 18363078158921397709217065595975083804715850764003937552840752068995684896094;\n    uint256 constant IC3y = 6356201357919158674524846040474742059850922068678845688398261965620137657592;\n\n    uint256 constant IC4x = 8813179488865606467868755709484633923980716104832932915457811325526035335132;\n    uint256 constant IC4y = 20216678721323519869166570792989964593704407164255410619652867894036591607039;\n\n    uint256 constant IC5x = 10254041146760060885180515975979160640580556569412865411982549218792279628054;\n    uint256 constant IC5y = 5937337526092737154790242335388519402592195027758514009418445274447654392408;\n\n    uint256 constant IC6x = 6487887023060103025461262607066077753303111364284630711225364203429583119667;\n    uint256 constant IC6y = 9647367263365055208127060115684118271642577192943355654574042323238126142842;\n\n    uint256 constant IC7x = 1260223604987289792405046828001942625622992139393751216155650702639145029749;\n    uint256 constant IC7y = 2742430314366457322327235280068722351943790233558720420659365286661526691939;\n\n    uint256 constant IC8x = 6780852502317420876326587220733832500497700836229130631481647355160554363797;\n    uint256 constant IC8y = 7260130600152293755623621289781796816223636692544444023521962383551903679550;\n\n    uint256 constant IC9x = 16180852041915124186194757848218057423191262278060247774755432839968826668747;\n    uint256 constant IC9y = 4299519466041456271797693723409036300993042451711185773308810656338100840904;\n\n    uint256 constant IC10x = 21549176555147492502695896543923455183339623753693104008947394076025438003414;\n    uint256 constant IC10y = 11057194722724840668775944421027479060823497971322310957420064632375596000918;\n\n    uint256 constant IC11x = 3905450711501781175781745129788410739800909739729632320289389094796190117572;\n    uint256 constant IC11y = 12276543641605994131685822833408782058051990285239086386986853095747484905414;\n\n    uint256 constant IC12x = 15035646271603720541027275517857358447139739283921895738045670935300810348256;\n    uint256 constant IC12y = 17082296551812368999339328905803290141466596893620163711969558052337387560666;\n\n    uint256 constant IC13x = 13404058372510320542216005167100271960328045011107447271677281415173038332230;\n    uint256 constant IC13y = 15727666297577107736923708965569924891313464654846652017031390448813874788030;\n\n\n    // Memory data\n    uint16 constant pVk = 0;\n    uint16 constant pPairing = 128;\n\n    uint16 constant pLastMem = 896;\n\n    function verifyProof(uint[2] calldata _pA, uint[2][2] calldata _pB, uint[2] calldata _pC, uint[13] calldata _pubSignals) public view returns (bool) {\n        assembly {\n            function checkField(v) {\n                if iszero(lt(v, r)) {\n                    mstore(0, 0)\n                    return(0, 0x20)\n                }\n            }\n\n            // G1 function to multiply a G1 value(x,y) to value in an address\n            function g1_mulAccC(pR, x, y, s) {\n                let success\n                let mIn := mload(0x40)\n                mstore(mIn, x)\n                mstore(add(mIn, 32), y)\n                mstore(add(mIn, 64), s)\n\n                success := staticcall(sub(gas(), 2000), 7, mIn, 96, mIn, 64)\n\n                if iszero(success) {\n                    mstore(0, 0)\n                    return(0, 0x20)\n                }\n\n                mstore(add(mIn, 64), mload(pR))\n                mstore(add(mIn, 96), mload(add(pR, 32)))\n\n                success := staticcall(sub(gas(), 2000), 6, mIn, 128, pR, 64)\n\n                if iszero(success) {\n                    mstore(0, 0)\n                    return(0, 0x20)\n                }\n            }\n\n            function checkPairing(pA, pB, pC, pubSignals, pMem) -> isOk {\n                let _pPairing := add(pMem, pPairing)\n                let _pVk := add(pMem, pVk)\n\n                mstore(_pVk, IC0x)\n                mstore(add(_pVk, 32), IC0y)\n\n                // Compute the linear combination vk_x\n\n                g1_mulAccC(_pVk, IC1x, IC1y, calldataload(add(pubSignals, 0)))\n\n                g1_mulAccC(_pVk, IC2x, IC2y, calldataload(add(pubSignals, 32)))\n\n                g1_mulAccC(_pVk, IC3x, IC3y, calldataload(add(pubSignals, 64)))\n\n                g1_mulAccC(_pVk, IC4x, IC4y, calldataload(add(pubSignals, 96)))\n\n                g1_mulAccC(_pVk, IC5x, IC5y, calldataload(add(pubSignals, 128)))\n\n                g1_mulAccC(_pVk, IC6x, IC6y, calldataload(add(pubSignals, 160)))\n\n                g1_mulAccC(_pVk, IC7x, IC7y, calldataload(add(pubSignals, 192)))\n\n                g1_mulAccC(_pVk, IC8x, IC8y, calldataload(add(pubSignals, 224)))\n\n                g1_mulAccC(_pVk, IC9x, IC9y, calldataload(add(pubSignals, 256)))\n\n                g1_mulAccC(_pVk, IC10x, IC10y, calldataload(add(pubSignals, 288)))\n\n                g1_mulAccC(_pVk, IC11x, IC11y, calldataload(add(pubSignals, 320)))\n\n                g1_mulAccC(_pVk, IC12x, IC12y, calldataload(add(pubSignals, 352)))\n\n                g1_mulAccC(_pVk, IC13x, IC13y, calldataload(add(pubSignals, 384)))\n\n\n                // -A\n                mstore(_pPairing, calldataload(pA))\n                mstore(add(_pPairing, 32), mod(sub(q, calldataload(add(pA, 32))), q))\n\n                // B\n                mstore(add(_pPairing, 64), calldataload(pB))\n                mstore(add(_pPairing, 96), calldataload(add(pB, 32)))\n                mstore(add(_pPairing, 128), calldataload(add(pB, 64)))\n                mstore(add(_pPairing, 160), calldataload(add(pB, 96)))\n\n                // alpha1\n                mstore(add(_pPairing, 192), alphax)\n                mstore(add(_pPairing, 224), alphay)\n\n                // beta2\n                mstore(add(_pPairing, 256), betax1)\n                mstore(add(_pPairing, 288), betax2)\n                mstore(add(_pPairing, 320), betay1)\n                mstore(add(_pPairing, 352), betay2)\n\n                // vk_x\n                mstore(add(_pPairing, 384), mload(add(pMem, pVk)))\n                mstore(add(_pPairing, 416), mload(add(pMem, add(pVk, 32))))\n\n\n                // gamma2\n                mstore(add(_pPairing, 448), gammax1)\n                mstore(add(_pPairing, 480), gammax2)\n                mstore(add(_pPairing, 512), gammay1)\n                mstore(add(_pPairing, 544), gammay2)\n\n                // C\n                mstore(add(_pPairing, 576), calldataload(pC))\n                mstore(add(_pPairing, 608), calldataload(add(pC, 32)))\n\n                // delta2\n                mstore(add(_pPairing, 640), deltax1)\n                mstore(add(_pPairing, 672), deltax2)\n                mstore(add(_pPairing, 704), deltay1)\n                mstore(add(_pPairing, 736), deltay2)\n\n\n                let success := staticcall(sub(gas(), 2000), 8, _pPairing, 768, _pPairing, 0x20)\n\n                isOk := and(success, mload(_pPairing))\n            }\n\n            let pMem := mload(0x40)\n            mstore(0x40, add(pMem, pLastMem))\n\n            // Validate that all evaluations  F\n\n            checkField(calldataload(add(_pubSignals, 0)))\n\n            checkField(calldataload(add(_pubSignals, 32)))\n\n            checkField(calldataload(add(_pubSignals, 64)))\n\n            checkField(calldataload(add(_pubSignals, 96)))\n\n            checkField(calldataload(add(_pubSignals, 128)))\n\n            checkField(calldataload(add(_pubSignals, 160)))\n\n            checkField(calldataload(add(_pubSignals, 192)))\n\n            checkField(calldataload(add(_pubSignals, 224)))\n\n            checkField(calldataload(add(_pubSignals, 256)))\n\n            checkField(calldataload(add(_pubSignals, 288)))\n\n            checkField(calldataload(add(_pubSignals, 320)))\n\n            checkField(calldataload(add(_pubSignals, 352)))\n\n            checkField(calldataload(add(_pubSignals, 384)))\n\n            checkField(calldataload(add(_pubSignals, 416)))\n\n\n            // Validate all evaluations\n            let isValid := checkPairing(_pA, _pB, _pC, _pubSignals, pMem)\n\n            mstore(0, isValid)\n             return(0, 0x20)\n         }\n     }\n }\n",
  "sourcePath": "/Users/ericdamian/Desktop/BSP S2/backend/contracts/Groth16Verifier.sol",
  "compiler": {
    "name": "solc",
    "version": "0.8.19+commit.7dd6d404.Emscripten.clang"
  },
  "schemaVersion": "3.4.16",
  "updatedAt": "2024-06-06T15:31:30.069Z",
  "networkType": "ethereum",
  "devdoc": {
    "kind": "dev",
    "methods": {},
    "version": 1
  },
  "userdoc": {
    "kind": "user",
    "methods": {},
    "version": 1
  }
}