{
  "contractName": "IPManager",
  "abi": [
    {
      "anonymous": false,
      "inputs": [
        {
          "indexed": false,
          "internalType": "string",
          "name": "ipHash",
          "type": "string"
        },
        {
          "indexed": false,
          "internalType": "address",
          "name": "owner",
          "type": "address"
        },
        {
          "indexed": false,
          "internalType": "uint256",
          "name": "timestamp",
          "type": "uint256"
        }
      ],
      "name": "IPRegistered",
      "type": "event"
    },
    {
      "inputs": [
        {
          "internalType": "uint256",
          "name": "",
          "type": "uint256"
        }
      ],
      "name": "intellectualProperties",
      "outputs": [
        {
          "internalType": "address",
          "name": "owner",
          "type": "address"
        },
        {
          "internalType": "string",
          "name": "ipHash",
          "type": "string"
        },
        {
          "internalType": "uint256",
          "name": "timestamp",
          "type": "uint256"
        },
        {
          "internalType": "bool",
          "name": "proved",
          "type": "bool"
        }
      ],
      "stateMutability": "view",
      "type": "function",
      "constant": true
    },
    {
      "inputs": [
        {
          "internalType": "uint256",
          "name": "value",
          "type": "uint256"
        }
      ],
      "name": "uint256ToHex",
      "outputs": [
        {
          "internalType": "string",
          "name": "",
          "type": "string"
        }
      ],
      "stateMutability": "pure",
      "type": "function",
      "constant": true
    },
    {
      "inputs": [
        {
          "internalType": "uint256[2]",
          "name": "_pA",
          "type": "uint256[2]"
        },
        {
          "internalType": "uint256[2][2]",
          "name": "_pB",
          "type": "uint256[2][2]"
        },
        {
          "internalType": "uint256[2]",
          "name": "_pC",
          "type": "uint256[2]"
        },
        {
          "internalType": "uint256[13]",
          "name": "_pubSignals",
          "type": "uint256[13]"
        }
      ],
      "name": "registerIP",
      "outputs": [],
      "stateMutability": "nonpayable",
      "type": "function"
    }
  ],
  "bytecode": "0x608060405234801561001057600080fd5b50612228806100206000396000f3fe608060405234801561001057600080fd5b50600436106100415760003560e01c806356777bb2146100465780636faf51e0146100765780638de5110f14610092575b600080fd5b610060600480360381019061005b9190610a39565b6100c5565b60405161006d9190610af6565b60405180910390f35b610090600480360381019061008b9190610db0565b6102ce565b005b6100ac60048036038101906100a79190610a39565b61078b565b6040516100bc9493929190610e84565b60405180910390f35b606060008260001b90506000604067ffffffffffffffff8111156100ec576100eb610b1d565b5b6040519080825280601f01601f19166020018201604052801561011e5781602001600182028036833780820191505090505b50905060006040518060400160405280601081526020017f3031323334353637383961626364656600000000000000000000000000000000815250905060005b60208110156102c25781600485836020811061017d5761017c610ed0565b5b1a60f81b7effffffffffffffffffffffffffffffffffffffffffffffffffffffffffffff1916901c60f81c60ff16815181106101bc576101bb610ed0565b5b602001015160f81c60f81b836002836101d59190610f2e565b815181106101e6576101e5610ed0565b5b60200101907effffffffffffffffffffffffffffffffffffffffffffffffffffffffffffff1916908160001a90535081600f60f81b85836020811061022e5761022d610ed0565b5b1a60f81b1660f81c60ff168151811061024a57610249610ed0565b5b602001015160f81c60f81b836002836102639190610f2e565b600161026f9190610f70565b815181106102805761027f610ed0565b5b60200101907effffffffffffffffffffffffffffffffffffffffffffffffffffffffffffff1916908160001a90535080806102ba90610fa4565b91505061015e565b50819350505050919050565b60006040516102dc906109e7565b604051809103906000f0801580156102f8573d6000803e3d6000fd5b50905060008173ffffffffffffffffffffffffffffffffffffffff1663f143a75e878787876040518563ffffffff1660e01b815260040161033c9493929190611219565b602060405180830381865afa158015610359573d6000803e3d6000fd5b505050506040513d601f19601f8201168201806040525081019061037d919061128c565b9050806103bf576040517f08c379a00000000000000000000000000000000000000000000000000000000081526004016103b690611305565b60405180910390fd5b6000600467ffffffffffffffff8111156103dc576103db610b1d565b5b60405190808252806020026020018201604052801561040a5781602001602082028036833780820191505090505b50905060005b600481101561046f57846001826104279190610f70565b600d811061043857610437610ed0565b5b60200201518282815181106104505761044f610ed0565b5b602002602001018181525050808061046790610fa4565b915050610410565b50600061047f6040600484610880565b90506000600467ffffffffffffffff81111561049e5761049d610b1d565b5b6040519080825280602002602001820160405280156104cc5781602001602082028036833780820191505090505b50905060005b600481101561053157866005826104e99190610f70565b600d81106104fa576104f9610ed0565b5b602002015182828151811061051257610511610ed0565b5b602002602001018181525050808061052990610fa4565b9150506104d2565b5060006105416040600484610880565b90506000600467ffffffffffffffff8111156105605761055f610b1d565b5b60405190808252806020026020018201604052801561058e5781602001602082028036833780820191505090505b50905060005b60048110156105f357886009826105ab9190610f70565b600d81106105bc576105bb610ed0565b5b60200201518282815181106105d4576105d3610ed0565b5b60200260200101818152505080806105eb90610fa4565b915050610594565b5060006106036040600484610880565b905060006106118483610927565b90508073ffffffffffffffffffffffffffffffffffffffff163373ffffffffffffffffffffffffffffffffffffffff1614610681576040517f08c379a000000000000000000000000000000000000000000000000000000000815260040161067890611397565b60405180910390fd5b600060405180608001604052808373ffffffffffffffffffffffffffffffffffffffff1681526020016106b3896100c5565b81526020014281526020018a15158152509050600081908060018154018082558091505060019003906000526020600020906004020160009091909190915060008201518160000160006101000a81548173ffffffffffffffffffffffffffffffffffffffff021916908373ffffffffffffffffffffffffffffffffffffffff160217905550602082015181600101908161074e91906115c3565b506040820151816002015560608201518160030160006101000a81548160ff02191690831515021790555050505050505050505050505050505050565b6000818154811061079b57600080fd5b90600052602060002090600402016000915090508060000160009054906101000a900473ffffffffffffffffffffffffffffffffffffffff16908060010180546107e4906113e6565b80601f0160208091040260200160405190810160405280929190818152602001828054610810906113e6565b801561085d5780601f106108325761010080835404028352916020019161085d565b820191906000526020600020905b81548152906001019060200180831161084057829003601f168201915b5050505050908060020154908060030160009054906101000a900460ff16905084565b6000806001905060005b858110156108b45760028261089f9190610f2e565b915080806108ac90610fa4565b91505061088a565b506000808590505b600081111561091a5782826108d19190610f2e565b9150846001826108e19190611695565b815181106108f2576108f1610ed0565b5b6020026020010151826109059190610f70565b91508080610912906116c9565b9150506108bc565b5080925050509392505050565b60008061093384610984565b9050600061094084610984565b905060008282604051602001610957929190611739565b60405160208183030381529060405290506000818051906020012090508060001c94505050505092915050565b60606000602067ffffffffffffffff8111156109a3576109a2610b1d565b5b6040519080825280601f01601f1916602001820160405280156109d55781602001600182028036833780820191505090505b50905082602082015280915050919050565b610a958061175e83390190565b6000604051905090565b600080fd5b6000819050919050565b610a1681610a03565b8114610a2157600080fd5b50565b600081359050610a3381610a0d565b92915050565b600060208284031215610a4f57610a4e6109fe565b5b6000610a5d84828501610a24565b91505092915050565b600081519050919050565b600082825260208201905092915050565b60005b83811015610aa0578082015181840152602081019050610a85565b60008484015250505050565b6000601f19601f8301169050919050565b6000610ac882610a66565b610ad28185610a71565b9350610ae2818560208601610a82565b610aeb81610aac565b840191505092915050565b60006020820190508181036000830152610b108184610abd565b905092915050565b600080fd5b7f4e487b7100000000000000000000000000000000000000000000000000000000600052604160045260246000fd5b610b5582610aac565b810181811067ffffffffffffffff82111715610b7457610b73610b1d565b5b80604052505050565b6000610b876109f4565b9050610b938282610b4c565b919050565b600067ffffffffffffffff821115610bb357610bb2610b1d565b5b602082029050919050565b600080fd5b6000610bd6610bd184610b98565b610b7d565b90508060208402830185811115610bf057610bef610bbe565b5b835b81811015610c195780610c058882610a24565b845260208401935050602081019050610bf2565b5050509392505050565b600082601f830112610c3857610c37610b18565b5b6002610c45848285610bc3565b91505092915050565b600067ffffffffffffffff821115610c6957610c68610b1d565b5b602082029050919050565b6000610c87610c8284610c4e565b610b7d565b90508060408402830185811115610ca157610ca0610bbe565b5b835b81811015610cca5780610cb68882610c23565b845260208401935050604081019050610ca3565b5050509392505050565b600082601f830112610ce957610ce8610b18565b5b6002610cf6848285610c74565b91505092915050565b600067ffffffffffffffff821115610d1a57610d19610b1d565b5b602082029050919050565b6000610d38610d3384610cff565b610b7d565b90508060208402830185811115610d5257610d51610bbe565b5b835b81811015610d7b5780610d678882610a24565b845260208401935050602081019050610d54565b5050509392505050565b600082601f830112610d9a57610d99610b18565b5b600d610da7848285610d25565b91505092915050565b6000806000806102a08587031215610dcb57610dca6109fe565b5b6000610dd987828801610c23565b9450506040610dea87828801610cd4565b93505060c0610dfb87828801610c23565b925050610100610e0d87828801610d85565b91505092959194509250565b600073ffffffffffffffffffffffffffffffffffffffff82169050919050565b6000610e4482610e19565b9050919050565b610e5481610e39565b82525050565b610e6381610a03565b82525050565b60008115159050919050565b610e7e81610e69565b82525050565b6000608082019050610e996000830187610e4b565b8181036020830152610eab8186610abd565b9050610eba6040830185610e5a565b610ec76060830184610e75565b95945050505050565b7f4e487b7100000000000000000000000000000000000000000000000000000000600052603260045260246000fd5b7f4e487b7100000000000000000000000000000000000000000000000000000000600052601160045260246000fd5b6000610f3982610a03565b9150610f4483610a03565b9250828202610f5281610a03565b91508282048414831517610f6957610f68610eff565b5b5092915050565b6000610f7b82610a03565b9150610f8683610a03565b9250828201905080821115610f9e57610f9d610eff565b5b92915050565b6000610faf82610a03565b91507fffffffffffffffffffffffffffffffffffffffffffffffffffffffffffffffff8203610fe157610fe0610eff565b5b600182019050919050565b600060029050919050565b600081905092915050565b6000819050919050565b61101581610a03565b82525050565b6000611027838361100c565b60208301905092915050565b6000602082019050919050565b61104981610fec565b6110538184610ff7565b925061105e82611002565b8060005b8381101561108f578151611076878261101b565b965061108183611033565b925050600181019050611062565b505050505050565b600060029050919050565b600081905092915050565b6000819050919050565b600081905092915050565b6110cb81610fec565b6110d581846110b7565b92506110e082611002565b8060005b838110156111115781516110f8878261101b565b965061110383611033565b9250506001810190506110e4565b505050505050565b600061112583836110c2565b60408301905092915050565b6000602082019050919050565b61114781611097565b61115181846110a2565b925061115c826110ad565b8060005b8381101561118d5781516111748782611119565b965061117f83611131565b925050600181019050611160565b505050505050565b6000600d9050919050565b600081905092915050565b6000819050919050565b6000602082019050919050565b6111cb81611195565b6111d581846111a0565b92506111e0826111ab565b8060005b838110156112115781516111f8878261101b565b9650611203836111b5565b9250506001810190506111e4565b505050505050565b60006102a08201905061122f6000830187611040565b61123c604083018661113e565b61124960c0830185611040565b6112576101008301846111c2565b95945050505050565b61126981610e69565b811461127457600080fd5b50565b60008151905061128681611260565b92915050565b6000602082840312156112a2576112a16109fe565b5b60006112b084828501611277565b91505092915050565b7f496e76616c69642070726f6f6600000000000000000000000000000000000000600082015250565b60006112ef600d83610a71565b91506112fa826112b9565b602082019050919050565b6000602082019050818103600083015261131e816112e2565b9050919050565b7f546865207369676e6174757265206d757374206265207369676e65642062792060008201527f746865206f776e65720000000000000000000000000000000000000000000000602082015250565b6000611381602983610a71565b915061138c82611325565b604082019050919050565b600060208201905081810360008301526113b081611374565b9050919050565b7f4e487b7100000000000000000000000000000000000000000000000000000000600052602260045260246000fd5b600060028204905060018216806113fe57607f821691505b602082108103611411576114106113b7565b5b50919050565b60008190508160005260206000209050919050565b60006020601f8301049050919050565b600082821b905092915050565b6000600883026114797fffffffffffffffffffffffffffffffffffffffffffffffffffffffffffffffff8261143c565b611483868361143c565b95508019841693508086168417925050509392505050565b6000819050919050565b60006114c06114bb6114b684610a03565b61149b565b610a03565b9050919050565b6000819050919050565b6114da836114a5565b6114ee6114e6826114c7565b848454611449565b825550505050565b600090565b6115036114f6565b61150e8184846114d1565b505050565b5b81811015611532576115276000826114fb565b600181019050611514565b5050565b601f8211156115775761154881611417565b6115518461142c565b81016020851015611560578190505b61157461156c8561142c565b830182611513565b50505b505050565b600082821c905092915050565b600061159a6000198460080261157c565b1980831691505092915050565b60006115b38383611589565b9150826002028217905092915050565b6115cc82610a66565b67ffffffffffffffff8111156115e5576115e4610b1d565b5b6115ef82546113e6565b6115fa828285611536565b600060209050601f83116001811461162d576000841561161b578287015190505b61162585826115a7565b86555061168d565b601f19841661163b86611417565b60005b828110156116635784890151825560018201915060208501945060208101905061163e565b86831015611680578489015161167c601f891682611589565b8355505b6001600288020188555050505b505050505050565b60006116a082610a03565b91506116ab83610a03565b92508282039050818111156116c3576116c2610eff565b5b92915050565b60006116d482610a03565b9150600082036116e7576116e6610eff565b5b600182039050919050565b600081519050919050565b600081905092915050565b6000611713826116f2565b61171d81856116fd565b935061172d818560208601610a82565b80840191505092915050565b60006117458285611708565b91506117518284611708565b9150819050939250505056fe608060405234801561001057600080fd5b50610a75806100206000396000f3fe608060405234801561001057600080fd5b506004361061002b5760003560e01c8063f143a75e14610030575b600080fd5b61004a600480360381019061004591906109a0565b610060565b6040516100579190610a24565b60405180910390f35b6000610852565b7f30644e72e131a029b85045b68181585d2833e84879b9709143e1f593f00000018110610098576000805260206000f35b50565b600060405183815284602082015285604082015260408160608360076107d05a03fa9150816100ce576000805260206000f35b825160408201526020830151606082015260408360808360066107d05a03fa9150816100fe576000805260206000f35b505050505050565b600060808601600087017f123bf3a65b37406e2d4d1e3a7dbef0f427dc76ec404013293576dc4f0f2ad8e181527f0d6be5c48f847f935497b97e89a363e3210425397ddb058fc3ccd058d75f59cc60208201526101a960008801357f1f23cef490bf0664da6b79c1c88ef092e17fa864992c375d3005ecb18b1ae3597f2802462707b74c6fb4f1836fee22a63bef378146ba5c2e6a4a6dc1972112dc278461009b565b6101f960208801357f0cbed2fb72c08e5d52d2abddcc9bfcf166fcd4c803824c13412459386f6adc917f2416ca1276e28b2e9951c2cf58d792b41b96837b020b246a09129274dfe25ddc8461009b565b61024960408801357f0e0d7b83b7cfd1f1f13088a5f5ee419dbee84b2406509e52fb310bf45c2384f87f2899224886b8626d13de19b5ce8b41b8b52ef762e0b97de362322b5da0820d5e8461009b565b61029960608801357f2cb23c1298968b80d25f3c05867b726e30be7deed5e07174095572bcbb48fcff7f137c1533ac1067b01fa0c6ad59693e19d3602d36ee9779f4dc62d4271bef07dc8461009b565b6102e960808801357f0d2069f8b47499d732510d5d4e01141007eee900062c91dfe1785bd356e792587f16ab94e4e8de600b44bafc6ad36a67402b340147648ae5f2791961f80f43d9168461009b565b61033960a08801357f15543763e982192159a827c8d49bd7fd662a61d58c52fe155d2a31cdb038c57a7f0e580390824d96409995a9fc26c501dec2fd2721323bbaa443ddfabef18be5338461009b565b61038960c08801357f06102919e6178fc2f738cb9c1b14cc0f6354363d79bc2272e0a494f86a68a0637f02c942e377f662e336c52a90b4045223288d93236f0b0303cff73f40b43210758461009b565b6103d960e08801357f100d169ac4cf5261f83e6c8d71de0816cb96398857f457b762ea11b1bbc9c43e7f0efdd39615c28a4aa8a2cced9234738a0452a4409852a05da5bcffe43d9fdb958461009b565b61042a6101008801357f098171187c027810111bd6717aea97d257a4e09967359012fcb9ed8809db69c87f23c609a72c1eeedeae3e61b25afbde7b899c5fbab9d8ee55f978e858852d36cb8461009b565b61047b6101208801357f18722682bfb10368ad3ee9cb493ca616e030f26af815af4ce06bb2f4fe93a6967f2fa466d634bde55a149936fbeb56fb16e2f3bfbe42dd27544d42a74782a6e0d68461009b565b6104cc6101408801357f1b244707d8a57bcdf7bd17414f0d2d298c969c1bb5144758e4f6c2b24ea3efc67f08a2682200ca7d09477c87a2eaad1508ce239a2bdc973063e81e631cf6c16ec48461009b565b61051d6101608801357f25c43cba60e4b33bc6c7530dad3308356275452535213dea6fd20c0f72f3deda7f213ddfcc4d4b3aa1ab424e3b309671108ef7ed6f93fb54809a9c33016ce616e08461009b565b61056e6101808801357f22c58b2dab58bbe4cb16a9a0483a0f9446203058d009fac3fee37021efb6b6be7f1da26d9d984a638744d32c7605b8445652773386f2480920c7f095e00d2ed9468461009b565b833582527f30644e72e131a029b85045b68181585d97816a916871ca8d3c208c16d87cfd4760208501357f30644e72e131a029b85045b68181585d97816a916871ca8d3c208c16d87cfd4703066020830152843560408301526020850135606083015260408501356080830152606085013560a08301527f2d4d9aa7e302d9df41749d5507949d05dbea33fbb16c643b22f599a2be6df2e260c08301527f14bedd503c37ceb061d8ec60209fe345ce89830a19230301f076caff004d192660e08301527f0967032fcbf776d1afc985f88877f182d38480a653f2decaa9794cbc3bf3060c6101008301527f0e187847ad4c798374d0d6732bf501847dd68bc0e071241e0213bc7fc13db7ab6101208301527f304cfbd1e08a704a99f5e847d93f8c3caafddec46b7a0d379da69a4d112346a76101408301527f1739c1b1a457a8c7313123d24d2f9192f896b7c63eea05a9d57f06547ad0cec8610160830152600088015161018083015260206000018801516101a08301527f198e9393920d483a7260bfb731fb5d25f1aa493335a9e71297e485b7aef312c26101c08301527f1800deef121f1e76426a00665e5c4479674322d4f75edadd46debd5cd992f6ed6101e08301527f090689d0585ff075ec9e99ad690c3395bc4b313370b38ef355acdadcd122975b6102008301527f12c85ea5db8c6deb4aab71808dcb408fe3d1e7690c43d37b4ce6cc0166fa7daa610220830152853561024083015260208601356102608301527f221c0e1e89f3ff75930fb529fb579b62dcca7123c471f3bdfa15f0a8e79a2e3b6102808301527f04da7cd301ae43d6dc70d88018e20dd23c46ee5497615132774df5f3e22a979e6102a08301527f08e9c87020f89b7c551988c9a61e186047377e1187c1ce6032919438308767d76102c08301527f1f6c0a63a4602d21fd85ed4c0ea978c0f0a88222e83d140c88967ea8def575b06102e08301526020826103008460086107d05a03fa82518116935050505095945050505050565b604051610380810160405261086a6000840135610067565b6108776020840135610067565b6108846040840135610067565b6108916060840135610067565b61089e6080840135610067565b6108ab60a0840135610067565b6108b860c0840135610067565b6108c560e0840135610067565b6108d3610100840135610067565b6108e1610120840135610067565b6108ef610140840135610067565b6108fd610160840135610067565b61090b610180840135610067565b6109196101a0840135610067565b610926818486888a610106565b8060005260206000f35b600080fd5b600080fd5b60008190508260206002028201111561095657610955610935565b5b92915050565b60008190508260406002028201111561097857610977610935565b5b92915050565b6000819050826020600d028201111561099a57610999610935565b5b92915050565b6000806000806102a085870312156109bb576109ba610930565b5b60006109c98782880161093a565b94505060406109da8782880161095c565b93505060c06109eb8782880161093a565b9250506101006109fd8782880161097e565b91505092959194509250565b60008115159050919050565b610a1e81610a09565b82525050565b6000602082019050610a396000830184610a15565b9291505056fea264697066735822122014cd6b2c514a129f8b5fb8d6fd847ca0e1c5edcb8dcb3acd8c5015c4c12b4fa264736f6c63430008130033a26469706673582212208aa7fe356b584abff856d54d29dd6bbcda39dd1408a1bc8f56ee00e7bbe6879564736f6c63430008130033",
  "immutableReferences": {},
  "source": "// SPDX-License-Identifier: MIT\npragma solidity ^0.8.0;\n\nimport \"./Groth16Verifier.sol\";\n\ncontract IPManager {\n\n  // Structure to hold intellectual property details\n    struct IntellectualProperty {\n        address owner;\n        string ipHash;\n        uint256 timestamp;\n        bool proved;\n    }\n\n    IntellectualProperty[] public intellectualProperties;\n\n    // Event to be emitted when a new IP is registered\n    event IPRegistered(string ipHash, address owner, uint256 timestamp);\n\n  function arrayToBigInt(uint256 n, uint256 k, uint256[] memory x) internal pure returns (uint256) {\n        // Convert an array of bigints to the original bigint\n        uint256 mod = 1;\n        for (uint256 idx = 0; idx < n; idx++) {\n            mod = mod * 2;\n        }\n\n        uint256 ret = 0;\n        for (uint256 idx = k; idx > 0; idx--) {\n            ret = ret * mod;\n            ret = ret + x[idx - 1];\n        }\n\n        return ret;\n    }\n\n    function getAddressFromPubKey(uint256 x, uint256 y) internal pure returns (address) {\n        // Convert x and y to bytes\n        bytes memory xBytes = uint256ToBytes(x);\n        bytes memory yBytes = uint256ToBytes(y);\n\n        // Concatenate x and y bytes\n        bytes memory concatenated = abi.encodePacked(xBytes, yBytes);\n\n        // Hash the concatenated data using keccak256\n        bytes32 hashed = keccak256(concatenated);\n\n        // Convert the hashed data to an address\n        return address(uint160(uint256(hashed)));\n    }\n\n    function uint256ToBytes(uint256 x) internal pure returns (bytes memory) {\n        bytes memory b = new bytes(32);\n        assembly { mstore(add(b, 32), x) }\n        return b;\n    }\n\n    function uint256ToHex(uint256 value) public pure returns (string memory) {\n        bytes32 valueBytes = bytes32(value);\n        bytes memory hexString = new bytes(64);\n\n        bytes memory alphabet = \"0123456789abcdef\";\n\n        for (uint256 i = 0; i < 32; i++) {\n            hexString[i*2] = alphabet[uint8(valueBytes[i] >> 4)];\n            hexString[1 + i*2] = alphabet[uint8(valueBytes[i] & 0x0f)];\n        }\n\n        return string(hexString);\n      }\n  function registerIP(uint[2] memory _pA, uint[2][2] memory _pB, uint[2] memory _pC, uint[13] memory _pubSignals) public {\n\n      Groth16Verifier verifier = new Groth16Verifier();\n\n      bool proof = verifier.verifyProof(_pA, _pB, _pC, _pubSignals);\n\n      require(proof, \"Invalid proof\");\n\n      // Extract ipHash from pubSignals [1:5]\n      uint256[] memory ipHash_array = new uint256[](4);\n\n      for (uint256 idx = 0; idx < 4; idx++) {\n          ipHash_array[idx] = _pubSignals[idx + 1];\n      }\n\n      uint256 ipHashBigInt = arrayToBigInt(64, 4, ipHash_array);\n\n      // Extract pubkey.x from pubSignals [5:9]\n      uint256[] memory pubkey_x_array = new uint256[](4);\n\n      for (uint256 idx = 0; idx < 4; idx++) {\n          pubkey_x_array[idx] = _pubSignals[idx + 5];\n      }\n\n      uint256 pubkey_x = arrayToBigInt(64, 4, pubkey_x_array);\n\n      // Extract pubkey.y from pubSignals [9:13]\n      uint256[] memory pubkey_y_array = new uint256[](4);\n\n      for (uint256 idx = 0; idx < 4; idx++) {\n          pubkey_y_array[idx] = _pubSignals[idx + 9];\n      }\n\n      uint256 pubkey_y = arrayToBigInt(64, 4, pubkey_y_array);\n\n      // Get the address from pubkey.x and pubkey.y\n      address owner = getAddressFromPubKey(pubkey_x, pubkey_y);\n\n      // Check if msg.sender is the owner\n      require(msg.sender == owner, \"The signature must be signed by the owner\");\n\n\n      // Register the IP\n      IntellectualProperty memory newIP = IntellectualProperty({\n          owner: owner,\n          ipHash: uint256ToHex(ipHashBigInt),\n          timestamp: block.timestamp,\n          proved: proof\n      });\n\n      intellectualProperties.push(newIP);\n\n    }\n\n}",
  "sourcePath": "/Users/ericdamian/Desktop/BSP S2/backend/contracts/IPManager.sol",
  "compiler": {
    "name": "solc",
    "version": "0.8.19+commit.7dd6d404.Emscripten.clang"
  },
  "schemaVersion": "3.4.16",
  "updatedAt": "2024-06-06T15:31:30.037Z",
  "networkType": "ethereum",
  "devdoc": {
    "kind": "dev",
    "methods": {},
    "version": 1
  },
  "userdoc": {
    "kind": "user",
    "methods": {},
    "version": 1
  }
}